{
  "_format": "hh-sol-artifact-1",
  "contractName": "Event",
  "sourceName": "contracts/Event.sol",
  "abi": [
    {
      "inputs": [
        {
          "internalType": "address",
          "name": "_owner",
          "type": "address"
        },
        {
          "internalType": "uint256",
          "name": "_numTickets",
          "type": "uint256"
        },
        {
          "internalType": "uint256",
          "name": "_price",
          "type": "uint256"
        },
        {
          "internalType": "bool",
          "name": "_canBeResold",
          "type": "bool"
        },
        {
          "internalType": "uint256",
          "name": "_royaltyPercent",
          "type": "uint256"
        },
        {
          "internalType": "string",
          "name": "_eventName",
          "type": "string"
        },
        {
          "internalType": "string",
          "name": "_eventSymbol",
          "type": "string"
        }
      ],
      "stateMutability": "nonpayable",
      "type": "constructor"
    },
    {
      "anonymous": false,
      "inputs": [
        {
          "indexed": true,
          "internalType": "address",
          "name": "owner",
          "type": "address"
        },
        {
          "indexed": true,
          "internalType": "address",
          "name": "approved",
          "type": "address"
        },
        {
          "indexed": true,
          "internalType": "uint256",
          "name": "tokenId",
          "type": "uint256"
        }
      ],
      "name": "Approval",
      "type": "event"
    },
    {
      "anonymous": false,
      "inputs": [
        {
          "indexed": true,
          "internalType": "address",
          "name": "owner",
          "type": "address"
        },
        {
          "indexed": true,
          "internalType": "address",
          "name": "operator",
          "type": "address"
        },
        {
          "indexed": false,
          "internalType": "bool",
          "name": "approved",
          "type": "bool"
        }
      ],
      "name": "ApprovalForAll",
      "type": "event"
    },
    {
      "anonymous": false,
      "inputs": [
        {
          "indexed": false,
          "internalType": "address",
          "name": "contractAddress",
          "type": "address"
        },
        {
          "indexed": false,
          "internalType": "string",
          "name": "eventName",
          "type": "string"
        },
        {
          "indexed": false,
          "internalType": "address",
          "name": "buyer",
          "type": "address"
        },
        {
          "indexed": false,
          "internalType": "uint256",
          "name": "ticketID",
          "type": "uint256"
        }
      ],
      "name": "CreateTicket",
      "type": "event"
    },
    {
      "anonymous": false,
      "inputs": [
        {
          "indexed": false,
          "internalType": "address",
          "name": "owner",
          "type": "address"
        },
        {
          "indexed": false,
          "internalType": "uint256",
          "name": "money",
          "type": "uint256"
        }
      ],
      "name": "OwnerWithdrawMoney",
      "type": "event"
    },
    {
      "anonymous": false,
      "inputs": [
        {
          "indexed": false,
          "internalType": "address",
          "name": "seller",
          "type": "address"
        },
        {
          "indexed": false,
          "internalType": "uint256",
          "name": "ticketID",
          "type": "uint256"
        }
      ],
      "name": "TicketForSale",
      "type": "event"
    },
    {
      "anonymous": false,
      "inputs": [
        {
          "indexed": false,
          "internalType": "address",
          "name": "contractAddress",
          "type": "address"
        },
        {
          "indexed": false,
          "internalType": "string",
          "name": "eventName",
          "type": "string"
        },
        {
          "indexed": false,
          "internalType": "address",
          "name": "buyer",
          "type": "address"
        },
        {
          "indexed": false,
          "internalType": "uint256",
          "name": "ticketID",
          "type": "uint256"
        }
      ],
      "name": "TicketSold",
      "type": "event"
    },
    {
      "anonymous": false,
      "inputs": [
        {
          "indexed": false,
          "internalType": "address",
          "name": "contractAddress",
          "type": "address"
        },
        {
          "indexed": false,
          "internalType": "uint256",
          "name": "ticketID",
          "type": "uint256"
        },
        {
          "indexed": false,
          "internalType": "string",
          "name": "eventName",
          "type": "string"
        }
      ],
      "name": "TicketUsed",
      "type": "event"
    },
    {
      "anonymous": false,
      "inputs": [
        {
          "indexed": true,
          "internalType": "address",
          "name": "from",
          "type": "address"
        },
        {
          "indexed": true,
          "internalType": "address",
          "name": "to",
          "type": "address"
        },
        {
          "indexed": true,
          "internalType": "uint256",
          "name": "tokenId",
          "type": "uint256"
        }
      ],
      "name": "Transfer",
      "type": "event"
    },
    {
      "anonymous": false,
      "inputs": [
        {
          "indexed": false,
          "internalType": "address",
          "name": "receiver",
          "type": "address"
        },
        {
          "indexed": false,
          "internalType": "uint256",
          "name": "money",
          "type": "uint256"
        }
      ],
      "name": "WithdrawMoney",
      "type": "event"
    },
    {
      "inputs": [
        {
          "internalType": "address",
          "name": "to",
          "type": "address"
        },
        {
          "internalType": "uint256",
          "name": "tokenId",
          "type": "uint256"
        }
      ],
      "name": "approve",
      "outputs": [],
      "stateMutability": "nonpayable",
      "type": "function"
    },
    {
      "inputs": [
        {
          "internalType": "address",
          "name": "buyer",
          "type": "address"
        },
        {
          "internalType": "uint256",
          "name": "ticketID",
          "type": "uint256"
        }
      ],
      "name": "approveAsBuyer",
      "outputs": [],
      "stateMutability": "nonpayable",
      "type": "function"
    },
    {
      "inputs": [
        {
          "internalType": "address",
          "name": "owner",
          "type": "address"
        }
      ],
      "name": "balanceOf",
      "outputs": [
        {
          "internalType": "uint256",
          "name": "",
          "type": "uint256"
        }
      ],
      "stateMutability": "view",
      "type": "function"
    },
    {
      "inputs": [
        {
          "internalType": "address",
          "name": "",
          "type": "address"
        }
      ],
      "name": "balances",
      "outputs": [
        {
          "internalType": "uint256",
          "name": "",
          "type": "uint256"
        }
      ],
      "stateMutability": "view",
      "type": "function"
    },
    {
      "inputs": [],
      "name": "buyTicket",
      "outputs": [],
      "stateMutability": "payable",
      "type": "function"
    },
    {
      "inputs": [
        {
          "internalType": "uint256",
          "name": "ticketID",
          "type": "uint256"
        }
      ],
      "name": "buyTicketFromUser",
      "outputs": [],
      "stateMutability": "payable",
      "type": "function"
    },
    {
      "inputs": [],
      "name": "canBeResold",
      "outputs": [
        {
          "internalType": "bool",
          "name": "",
          "type": "bool"
        }
      ],
      "stateMutability": "view",
      "type": "function"
    },
    {
      "inputs": [
        {
          "internalType": "uint256",
          "name": "tokenId",
          "type": "uint256"
        }
      ],
      "name": "getApproved",
      "outputs": [
        {
          "internalType": "address",
          "name": "",
          "type": "address"
        }
      ],
      "stateMutability": "view",
      "type": "function"
    },
    {
      "inputs": [
        {
          "internalType": "address",
          "name": "owner",
          "type": "address"
        },
        {
          "internalType": "address",
          "name": "operator",
          "type": "address"
        }
      ],
      "name": "isApprovedForAll",
      "outputs": [
        {
          "internalType": "bool",
          "name": "",
          "type": "bool"
        }
      ],
      "stateMutability": "view",
      "type": "function"
    },
    {
      "inputs": [],
      "name": "isCancelled",
      "outputs": [
        {
          "internalType": "bool",
          "name": "",
          "type": "bool"
        }
      ],
      "stateMutability": "view",
      "type": "function"
    },
    {
      "inputs": [
        {
          "internalType": "address",
          "name": "",
          "type": "address"
        }
      ],
      "name": "isUserRefund",
      "outputs": [
        {
          "internalType": "bool",
          "name": "",
          "type": "bool"
        }
      ],
      "stateMutability": "view",
      "type": "function"
    },
    {
      "inputs": [],
      "name": "name",
      "outputs": [
        {
          "internalType": "string",
          "name": "",
          "type": "string"
        }
      ],
      "stateMutability": "view",
      "type": "function"
    },
    {
      "inputs": [],
      "name": "numTickets",
      "outputs": [
        {
          "internalType": "uint256",
          "name": "",
          "type": "uint256"
        }
      ],
      "stateMutability": "view",
      "type": "function"
    },
    {
      "inputs": [],
      "name": "numTicketsLeft",
      "outputs": [
        {
          "internalType": "uint256",
          "name": "",
          "type": "uint256"
        }
      ],
      "stateMutability": "view",
      "type": "function"
    },
    {
      "inputs": [],
      "name": "owner",
      "outputs": [
        {
          "internalType": "address payable",
          "name": "",
          "type": "address"
        }
      ],
      "stateMutability": "view",
      "type": "function"
    },
    {
      "inputs": [
        {
          "internalType": "uint256",
          "name": "tokenId",
          "type": "uint256"
        }
      ],
      "name": "ownerOf",
      "outputs": [
        {
          "internalType": "address",
          "name": "",
          "type": "address"
        }
      ],
      "stateMutability": "view",
      "type": "function"
    },
    {
      "inputs": [],
      "name": "price",
      "outputs": [
        {
          "internalType": "uint256",
          "name": "",
          "type": "uint256"
        }
      ],
      "stateMutability": "view",
      "type": "function"
    },
    {
      "inputs": [
        {
          "internalType": "uint256",
          "name": "ticketID",
          "type": "uint256"
        }
      ],
      "name": "registerAsBuyer",
      "outputs": [],
      "stateMutability": "nonpayable",
      "type": "function"
    },
    {
      "inputs": [
        {
          "internalType": "uint256",
          "name": "",
          "type": "uint256"
        }
      ],
      "name": "registeredBuyers",
      "outputs": [
        {
          "internalType": "address",
          "name": "",
          "type": "address"
        }
      ],
      "stateMutability": "view",
      "type": "function"
    },
    {
      "inputs": [],
      "name": "royaltyPercent",
      "outputs": [
        {
          "internalType": "uint256",
          "name": "",
          "type": "uint256"
        }
      ],
      "stateMutability": "view",
      "type": "function"
    },
    {
      "inputs": [
        {
          "internalType": "address",
          "name": "from",
          "type": "address"
        },
        {
          "internalType": "address",
          "name": "to",
          "type": "address"
        },
        {
          "internalType": "uint256",
          "name": "tokenId",
          "type": "uint256"
        }
      ],
      "name": "safeTransferFrom",
      "outputs": [],
      "stateMutability": "nonpayable",
      "type": "function"
    },
    {
      "inputs": [
        {
          "internalType": "address",
          "name": "from",
          "type": "address"
        },
        {
          "internalType": "address",
          "name": "to",
          "type": "address"
        },
        {
          "internalType": "uint256",
          "name": "tokenId",
          "type": "uint256"
        },
        {
          "internalType": "bytes",
          "name": "data",
          "type": "bytes"
        }
      ],
      "name": "safeTransferFrom",
      "outputs": [],
      "stateMutability": "nonpayable",
      "type": "function"
    },
    {
      "inputs": [
        {
          "internalType": "address",
          "name": "operator",
          "type": "address"
        },
        {
          "internalType": "bool",
          "name": "approved",
          "type": "bool"
        }
      ],
      "name": "setApprovalForAll",
      "outputs": [],
      "stateMutability": "nonpayable",
      "type": "function"
    },
    {
      "inputs": [
        {
          "internalType": "enum Event.Stages",
          "name": "_stage",
          "type": "uint8"
        }
      ],
      "name": "setStage",
      "outputs": [
        {
          "internalType": "enum Event.Stages",
          "name": "",
          "type": "uint8"
        }
      ],
      "stateMutability": "nonpayable",
      "type": "function"
    },
    {
      "inputs": [
        {
          "internalType": "uint256",
          "name": "ticketID",
          "type": "uint256"
        },
        {
          "internalType": "uint256",
          "name": "resalePrice",
          "type": "uint256"
        }
      ],
      "name": "setTicketForSale",
      "outputs": [],
      "stateMutability": "nonpayable",
      "type": "function"
    },
    {
      "inputs": [
        {
          "internalType": "uint256",
          "name": "ticketID",
          "type": "uint256"
        }
      ],
      "name": "setTicketToUsed",
      "outputs": [],
      "stateMutability": "nonpayable",
      "type": "function"
    },
    {
      "inputs": [],
      "name": "stage",
      "outputs": [
        {
          "internalType": "enum Event.Stages",
          "name": "",
          "type": "uint8"
        }
      ],
      "stateMutability": "view",
      "type": "function"
    },
    {
      "inputs": [
        {
          "internalType": "bytes4",
          "name": "interfaceId",
          "type": "bytes4"
        }
      ],
      "name": "supportsInterface",
      "outputs": [
        {
          "internalType": "bool",
          "name": "",
          "type": "bool"
        }
      ],
      "stateMutability": "view",
      "type": "function"
    },
    {
      "inputs": [],
      "name": "symbol",
      "outputs": [
        {
          "internalType": "string",
          "name": "",
          "type": "string"
        }
      ],
      "stateMutability": "view",
      "type": "function"
    },
    {
      "inputs": [
        {
          "internalType": "uint256",
          "name": "",
          "type": "uint256"
        }
      ],
      "name": "tickets",
      "outputs": [
        {
          "internalType": "uint256",
          "name": "resalePrice",
          "type": "uint256"
        },
        {
          "internalType": "enum Event.TicketStatus",
          "name": "status",
          "type": "uint8"
        }
      ],
      "stateMutability": "view",
      "type": "function"
    },
    {
      "inputs": [
        {
          "internalType": "uint256",
          "name": "tokenId",
          "type": "uint256"
        }
      ],
      "name": "tokenURI",
      "outputs": [
        {
          "internalType": "string",
          "name": "",
          "type": "string"
        }
      ],
      "stateMutability": "view",
      "type": "function"
    },
    {
      "inputs": [
        {
          "internalType": "address",
          "name": "from",
          "type": "address"
        },
        {
          "internalType": "address",
          "name": "to",
          "type": "address"
        },
        {
          "internalType": "uint256",
          "name": "tokenId",
          "type": "uint256"
        }
      ],
      "name": "transferFrom",
      "outputs": [],
      "stateMutability": "nonpayable",
      "type": "function"
    },
    {
      "inputs": [],
      "name": "withdraw",
      "outputs": [],
      "stateMutability": "nonpayable",
      "type": "function"
    }
  ],
  "bytecode": "0x60806040523480156200001157600080fd5b50604051620051423803806200514283398181016040528101906200003791906200041c565b818181600090816200004a91906200074e565b5080600190816200005c91906200074e565b5050506000831015801562000072575060648311155b620000b4576040517f08c379a0000000000000000000000000000000000000000000000000000000008152600401620000ab9062000870565b60405180910390fd5b60008611620000fa576040517f08c379a0000000000000000000000000000000000000000000000000000000008152600401620000f19062000870565b60405180910390fd5b86600c60026101000a81548173ffffffffffffffffffffffffffffffffffffffff021916908373ffffffffffffffffffffffffffffffffffffffff16021790555085600a8190555085600b819055508460088190555083600c60006101000a81548160ff021916908315150217905550826009819055506000600660006101000a81548160ff021916908360048111156200019a576200019962000892565b5b021790555050505050505050620008c1565b6000604051905090565b600080fd5b600080fd5b600073ffffffffffffffffffffffffffffffffffffffff82169050919050565b6000620001ed82620001c0565b9050919050565b620001ff81620001e0565b81146200020b57600080fd5b50565b6000815190506200021f81620001f4565b92915050565b6000819050919050565b6200023a8162000225565b81146200024657600080fd5b50565b6000815190506200025a816200022f565b92915050565b60008115159050919050565b620002778162000260565b81146200028357600080fd5b50565b60008151905062000297816200026c565b92915050565b600080fd5b600080fd5b6000601f19601f8301169050919050565b7f4e487b7100000000000000000000000000000000000000000000000000000000600052604160045260246000fd5b620002f282620002a7565b810181811067ffffffffffffffff82111715620003145762000313620002b8565b5b80604052505050565b600062000329620001ac565b9050620003378282620002e7565b919050565b600067ffffffffffffffff8211156200035a5762000359620002b8565b5b6200036582620002a7565b9050602081019050919050565b60005b838110156200039257808201518184015260208101905062000375565b60008484015250505050565b6000620003b5620003af846200033c565b6200031d565b905082815260208101848484011115620003d457620003d3620002a2565b5b620003e184828562000372565b509392505050565b600082601f8301126200040157620004006200029d565b5b8151620004138482602086016200039e565b91505092915050565b600080600080600080600060e0888a0312156200043e576200043d620001b6565b5b60006200044e8a828b016200020e565b9750506020620004618a828b0162000249565b9650506040620004748a828b0162000249565b9550506060620004878a828b0162000286565b94505060806200049a8a828b0162000249565b93505060a088015167ffffffffffffffff811115620004be57620004bd620001bb565b5b620004cc8a828b01620003e9565b92505060c088015167ffffffffffffffff811115620004f057620004ef620001bb565b5b620004fe8a828b01620003e9565b91505092959891949750929550565b600081519050919050565b7f4e487b7100000000000000000000000000000000000000000000000000000000600052602260045260246000fd5b600060028204905060018216806200056057607f821691505b60208210810362000576576200057562000518565b5b50919050565b60008190508160005260206000209050919050565b60006020601f8301049050919050565b600082821b905092915050565b600060088302620005e07fffffffffffffffffffffffffffffffffffffffffffffffffffffffffffffffff82620005a1565b620005ec8683620005a1565b95508019841693508086168417925050509392505050565b6000819050919050565b60006200062f62000629620006238462000225565b62000604565b62000225565b9050919050565b6000819050919050565b6200064b836200060e565b620006636200065a8262000636565b848454620005ae565b825550505050565b600090565b6200067a6200066b565b6200068781848462000640565b505050565b5b81811015620006af57620006a360008262000670565b6001810190506200068d565b5050565b601f821115620006fe57620006c8816200057c565b620006d38462000591565b81016020851015620006e3578190505b620006fb620006f28562000591565b8301826200068c565b50505b505050565b600082821c905092915050565b6000620007236000198460080262000703565b1980831691505092915050565b60006200073e838362000710565b9150826002028217905092915050565b62000759826200050d565b67ffffffffffffffff811115620007755762000774620002b8565b5b62000781825462000547565b6200078e828285620006b3565b600060209050601f831160018114620007c65760008415620007b1578287015190505b620007bd858262000730565b8655506200082d565b601f198416620007d6866200057c565b60005b828110156200080057848901518255600182019150602085019450602081019050620007d9565b868310156200082057848901516200081c601f89168262000710565b8355505b6001600288020188555050505b505050505050565b600082825260208201905092915050565b50565b60006200085860008362000835565b9150620008658262000846565b600082019050919050565b600060208201905081810360008301526200088b8162000849565b9050919050565b7f4e487b7100000000000000000000000000000000000000000000000000000000600052602160045260246000fd5b61487180620008d16000396000f3fe6080604052600436106101ee5760003560e01c806394d51fc01161010d578063a51bba8c116100a0578063c87b56dd1161006f578063c87b56dd14610705578063ce3cd99714610742578063e985e9c51461077f578063edca914c146107bc578063f2d1ea05146107c6576101ee565b8063a51bba8c1461065b578063b3874c0d14610686578063b88d4fde146106b1578063c040e6b8146106da576101ee565b80639f67756d116100dc5780639f67756d146105b3578063a035b1fe146105de578063a22cb46514610609578063a49aa54414610632576101ee565b806394d51fc0146104f757806395d89b411461053457806395ee12211461055f5780639aecd64a1461058a576101ee565b80633ccfd60b116101855780636352211e116101545780636352211e1461042957806370a082311461046657806383047374146104a35780638da5cb5b146104cc576101ee565b80633ccfd60b1461036e57806342842e0e146103855780634680a424146103ae57806350b44712146103eb576101ee565b806323b872dd116101c157806323b872dd146102c157806327e235e3146102ea5780632f31707c14610327578063353d90ec14610343576101ee565b806301ffc9a7146101f357806306fdde0314610230578063081812fc1461025b578063095ea7b314610298575b600080fd5b3480156101ff57600080fd5b5061021a600480360381019061021591906136fe565b6107ef565b6040516102279190613746565b60405180910390f35b34801561023c57600080fd5b506102456108d1565b60405161025291906137f1565b60405180910390f35b34801561026757600080fd5b50610282600480360381019061027d9190613849565b610963565b60405161028f91906138b7565b60405180910390f35b3480156102a457600080fd5b506102bf60048036038101906102ba91906138fe565b6109a9565b005b3480156102cd57600080fd5b506102e860048036038101906102e3919061393e565b610ac0565b005b3480156102f657600080fd5b50610311600480360381019061030c9190613991565b610b20565b60405161031e91906139cd565b60405180910390f35b610341600480360381019061033c9190613849565b610b38565b005b34801561034f57600080fd5b50610358610ed2565b60405161036591906139cd565b60405180910390f35b34801561037a57600080fd5b50610383610ed8565b005b34801561039157600080fd5b506103ac60048036038101906103a7919061393e565b61146e565b005b3480156103ba57600080fd5b506103d560048036038101906103d09190613991565b61148e565b6040516103e29190613746565b60405180910390f35b3480156103f757600080fd5b50610412600480360381019061040d9190613849565b6114ae565b604051610420929190613a5f565b60405180910390f35b34801561043557600080fd5b50610450600480360381019061044b9190613849565b6114ef565b60405161045d91906138b7565b60405180910390f35b34801561047257600080fd5b5061048d60048036038101906104889190613991565b611575565b60405161049a91906139cd565b60405180910390f35b3480156104af57600080fd5b506104ca60048036038101906104c59190613849565b61162c565b005b3480156104d857600080fd5b506104e161179a565b6040516104ee9190613aa9565b60405180910390f35b34801561050357600080fd5b5061051e60048036038101906105199190613849565b6117c0565b60405161052b91906138b7565b60405180910390f35b34801561054057600080fd5b506105496117f3565b60405161055691906137f1565b60405180910390f35b34801561056b57600080fd5b50610574611885565b6040516105819190613746565b60405180910390f35b34801561059657600080fd5b506105b160048036038101906105ac91906138fe565b611898565b005b3480156105bf57600080fd5b506105c8611994565b6040516105d591906139cd565b60405180910390f35b3480156105ea57600080fd5b506105f361199a565b60405161060091906139cd565b60405180910390f35b34801561061557600080fd5b50610630600480360381019061062b9190613af0565b6119a0565b005b34801561063e57600080fd5b5061065960048036038101906106549190613b30565b6119b6565b005b34801561066757600080fd5b50610670611c4a565b60405161067d91906139cd565b60405180910390f35b34801561069257600080fd5b5061069b611c50565b6040516106a89190613746565b60405180910390f35b3480156106bd57600080fd5b506106d860048036038101906106d39190613ca5565b611c63565b005b3480156106e657600080fd5b506106ef611cc5565b6040516106fc9190613d70565b60405180910390f35b34801561071157600080fd5b5061072c60048036038101906107279190613849565b611cd8565b60405161073991906137f1565b60405180910390f35b34801561074e57600080fd5b5061076960048036038101906107649190613db0565b611d40565b6040516107769190613d70565b60405180910390f35b34801561078b57600080fd5b506107a660048036038101906107a19190613ddd565b611f57565b6040516107b39190613746565b60405180910390f35b6107c4611feb565b005b3480156107d257600080fd5b506107ed60048036038101906107e89190613849565b6122eb565b005b60007f80ac58cd000000000000000000000000000000000000000000000000000000007bffffffffffffffffffffffffffffffffffffffffffffffffffffffff1916827bffffffffffffffffffffffffffffffffffffffffffffffffffffffff191614806108ba57507f5b5e139f000000000000000000000000000000000000000000000000000000007bffffffffffffffffffffffffffffffffffffffffffffffffffffffff1916827bffffffffffffffffffffffffffffffffffffffffffffffffffffffff1916145b806108ca57506108c982612510565b5b9050919050565b6060600080546108e090613e4c565b80601f016020809104026020016040519081016040528092919081815260200182805461090c90613e4c565b80156109595780601f1061092e57610100808354040283529160200191610959565b820191906000526020600020905b81548152906001019060200180831161093c57829003601f168201915b5050505050905090565b600061096e8261257a565b6004600083815260200190815260200160002060009054906101000a900473ffffffffffffffffffffffffffffffffffffffff169050919050565b60006109b4826114ef565b90508073ffffffffffffffffffffffffffffffffffffffff168373ffffffffffffffffffffffffffffffffffffffff1603610a24576040517f08c379a0000000000000000000000000000000000000000000000000000000008152600401610a1b90613eef565b60405180910390fd5b8073ffffffffffffffffffffffffffffffffffffffff16610a436125c5565b73ffffffffffffffffffffffffffffffffffffffff161480610a725750610a7181610a6c6125c5565b611f57565b5b610ab1576040517f08c379a0000000000000000000000000000000000000000000000000000000008152600401610aa890613f81565b60405180910390fd5b610abb83836125cd565b505050565b610ad1610acb6125c5565b82612686565b610b10576040517f08c379a0000000000000000000000000000000000000000000000000000000008152600401610b0790614013565b60405180910390fd5b610b1b83838361271b565b505050565b600d6020528060005260406000206000915090505481565b6001806004811115610b4d57610b4c6139e8565b5b600660009054906101000a900460ff166004811115610b6f57610b6e6139e8565b5b14610baf576040517f08c379a0000000000000000000000000000000000000000000000000000000008152600401610ba690614059565b60405180910390fd5b600280811115610bc257610bc16139e8565b5b60078381548110610bd657610bd5614079565b5b906000526020600020906002020160010160009054906101000a900460ff166002811115610c0757610c066139e8565b5b14610c47576040517f08c379a0000000000000000000000000000000000000000000000000000000008152600401610c3e90614059565b60405180910390fd5b600060078381548110610c5d57610c5c614079565b5b906000526020600020906002020160000154905080341015610cb4576040517f08c379a0000000000000000000000000000000000000000000000000000000008152600401610cab90614059565b60405180910390fd5b80341115610d245760008134610cca91906140d7565b905080600d60003373ffffffffffffffffffffffffffffffffffffffff1673ffffffffffffffffffffffffffffffffffffffff1681526020019081526020016000206000828254610d1b919061410b565b92505081905550505b6000606482600954610d36919061413f565b610d4091906141b0565b905060008183610d5091906140d7565b90506000610d5d866114ef565b905081600d60008373ffffffffffffffffffffffffffffffffffffffff1673ffffffffffffffffffffffffffffffffffffffff1681526020019081526020016000206000828254610dae919061410b565b9250508190555082600d6000600c60029054906101000a900473ffffffffffffffffffffffffffffffffffffffff1673ffffffffffffffffffffffffffffffffffffffff1673ffffffffffffffffffffffffffffffffffffffff1681526020019081526020016000206000828254610e26919061410b565b925050819055507ff43c2b94d59192e43ff5461a2ec018bcf2178e26af43252b9bb00e937ab5c84330610e576108d1565b3389604051610e6994939291906141e1565b60405180910390a1610e7c81338861146e565b600060078781548110610e9257610e91614079565b5b906000526020600020906002020160010160006101000a81548160ff02191690836002811115610ec557610ec46139e8565b5b0217905550505050505050565b600b5481565b600c60029054906101000a900473ffffffffffffffffffffffffffffffffffffffff1673ffffffffffffffffffffffffffffffffffffffff163373ffffffffffffffffffffffffffffffffffffffff16146111ff576000600d60003373ffffffffffffffffffffffffffffffffffffffff1673ffffffffffffffffffffffffffffffffffffffff16815260200190815260200160002054905060036004811115610f8557610f846139e8565b5b600660009054906101000a900460ff166004811115610fa757610fa66139e8565b5b148015611004575060001515600e60003373ffffffffffffffffffffffffffffffffffffffff1673ffffffffffffffffffffffffffffffffffffffff16815260200190815260200160002060009054906101000a900460ff161515145b1561102d5760085461101533611575565b61101f919061413f565b8161102a919061410b565b90505b60008111611070576040517f08c379a000000000000000000000000000000000000000000000000000000000815260040161106790614059565b60405180910390fd5b6000600d60003373ffffffffffffffffffffffffffffffffffffffff1673ffffffffffffffffffffffffffffffffffffffff168152602001908152602001600020819055506001600e60003373ffffffffffffffffffffffffffffffffffffffff1673ffffffffffffffffffffffffffffffffffffffff16815260200190815260200160002060006101000a81548160ff021916908315150217905550600033905060008173ffffffffffffffffffffffffffffffffffffffff16836040516111389061425b565b60006040518083038185875af1925050503d8060008114611175576040519150601f19603f3d011682016040523d82523d6000602084013e61117a565b606091505b50509050806111be576040517f08c379a00000000000000000000000000000000000000000000000000000000081526004016111b590614059565b60405180910390fd5b7f9fe2db218b58c00ab3556f2be44b2769b37978368c63313d82d78306568e477633846040516111ef929190614270565b60405180910390a150505061146c565b600480811115611212576112116139e8565b5b600660009054906101000a900460ff166004811115611234576112336139e8565b5b14611274576040517f08c379a000000000000000000000000000000000000000000000000000000000815260040161126b90614059565b60405180910390fd5b6000600d6000600c60029054906101000a900473ffffffffffffffffffffffffffffffffffffffff1673ffffffffffffffffffffffffffffffffffffffff1673ffffffffffffffffffffffffffffffffffffffff1681526020019081526020016000205490506000811161131d576040517f08c379a000000000000000000000000000000000000000000000000000000000815260040161131490614059565b60405180910390fd5b6000600d6000600c60029054906101000a900473ffffffffffffffffffffffffffffffffffffffff1673ffffffffffffffffffffffffffffffffffffffff1673ffffffffffffffffffffffffffffffffffffffff1681526020019081526020016000208190555060003373ffffffffffffffffffffffffffffffffffffffff16826040516113aa9061425b565b60006040518083038185875af1925050503d80600081146113e7576040519150601f19603f3d011682016040523d82523d6000602084013e6113ec565b606091505b5050905080611430576040517f08c379a000000000000000000000000000000000000000000000000000000000815260040161142790614059565b60405180910390fd5b7f5f0d69e5c0056ecc650fc0d2d916359037135dac3d5b5446d226dfdbe292482e3383604051611461929190614270565b60405180910390a150505b565b61148983838360405180602001604052806000815250611c63565b505050565b600e6020528060005260406000206000915054906101000a900460ff1681565b600781815481106114be57600080fd5b90600052602060002090600202016000915090508060000154908060010160009054906101000a900460ff16905082565b6000806114fb83612a14565b9050600073ffffffffffffffffffffffffffffffffffffffff168173ffffffffffffffffffffffffffffffffffffffff160361156c576040517f08c379a0000000000000000000000000000000000000000000000000000000008152600401611563906142e5565b60405180910390fd5b80915050919050565b60008073ffffffffffffffffffffffffffffffffffffffff168273ffffffffffffffffffffffffffffffffffffffff16036115e5576040517f08c379a00000000000000000000000000000000000000000000000000000000081526004016115dc90614377565b60405180910390fd5b600360008373ffffffffffffffffffffffffffffffffffffffff1673ffffffffffffffffffffffffffffffffffffffff168152602001908152602001600020549050919050565b6001806004811115611641576116406139e8565b5b600660009054906101000a900460ff166004811115611663576116626139e8565b5b146116a3576040517f08c379a000000000000000000000000000000000000000000000000000000000815260040161169a90614059565b60405180910390fd5b3373ffffffffffffffffffffffffffffffffffffffff16600f600084815260200190815260200160002060009054906101000a900473ffffffffffffffffffffffffffffffffffffffff1673ffffffffffffffffffffffffffffffffffffffff1603611744576040517f08c379a000000000000000000000000000000000000000000000000000000000815260040161173b90614059565b60405180910390fd5b33600f600084815260200190815260200160002060006101000a81548173ffffffffffffffffffffffffffffffffffffffff021916908373ffffffffffffffffffffffffffffffffffffffff1602179055505050565b600c60029054906101000a900473ffffffffffffffffffffffffffffffffffffffff1681565b600f6020528060005260406000206000915054906101000a900473ffffffffffffffffffffffffffffffffffffffff1681565b60606001805461180290613e4c565b80601f016020809104026020016040519081016040528092919081815260200182805461182e90613e4c565b801561187b5780601f106118505761010080835404028352916020019161187b565b820191906000526020600020905b81548152906001019060200180831161185e57829003601f168201915b5050505050905090565b600c60019054906101000a900460ff1681565b60018060048111156118ad576118ac6139e8565b5b600660009054906101000a900460ff1660048111156118cf576118ce6139e8565b5b1461190f576040517f08c379a000000000000000000000000000000000000000000000000000000000815260040161190690614059565b60405180910390fd5b3373ffffffffffffffffffffffffffffffffffffffff1661192f836114ef565b73ffffffffffffffffffffffffffffffffffffffff1614611985576040517f08c379a000000000000000000000000000000000000000000000000000000000815260040161197c90614059565b60405180910390fd5b61198f83836109a9565b505050565b60095481565b60085481565b6119b26119ab6125c5565b8383612a51565b5050565b60018060048111156119cb576119ca6139e8565b5b600660009054906101000a900460ff1660048111156119ed576119ec6139e8565b5b14611a2d576040517f08c379a0000000000000000000000000000000000000000000000000000000008152600401611a2490614059565b60405180910390fd5b823373ffffffffffffffffffffffffffffffffffffffff16611a4e826114ef565b73ffffffffffffffffffffffffffffffffffffffff1614611aa4576040517f08c379a0000000000000000000000000000000000000000000000000000000008152600401611a9b90614059565b60405180910390fd5b60016002811115611ab857611ab76139e8565b5b60078581548110611acc57611acb614079565b5b906000526020600020906002020160010160009054906101000a900460ff166002811115611afd57611afc6139e8565b5b03611b3d576040517f08c379a0000000000000000000000000000000000000000000000000000000008152600401611b3490614059565b60405180910390fd5b60011515600c60009054906101000a900460ff16151514611b93576040517f08c379a0000000000000000000000000000000000000000000000000000000008152600401611b8a90614059565b60405180910390fd5b600260078581548110611ba957611ba8614079565b5b906000526020600020906002020160010160006101000a81548160ff02191690836002811115611bdc57611bdb6139e8565b5b02179055508260078581548110611bf657611bf5614079565b5b9060005260206000209060020201600001819055507fec1a51878793b26371980da80139946e4a398461978717cbe8d07596dd3404b63385604051611c3c929190614270565b60405180910390a150505050565b600a5481565b600c60009054906101000a900460ff1681565b611c74611c6e6125c5565b83612686565b611cb3576040517f08c379a0000000000000000000000000000000000000000000000000000000008152600401611caa90614013565b60405180910390fd5b611cbf84848484612bbd565b50505050565b600660009054906101000a900460ff1681565b6060611ce38261257a565b6000611ced612c19565b90506000815111611d0d5760405180602001604052806000815250611d38565b80611d1784612c30565b604051602001611d289291906143d3565b6040516020818303038152906040525b915050919050565b6000600c60029054906101000a900473ffffffffffffffffffffffffffffffffffffffff1673ffffffffffffffffffffffffffffffffffffffff163373ffffffffffffffffffffffffffffffffffffffff1614611dd2576040517f08c379a0000000000000000000000000000000000000000000000000000000008152600401611dc990614059565b60405180910390fd5b611deb600660009054906101000a900460ff1683612cfe565b611e2a576040517f08c379a0000000000000000000000000000000000000000000000000000000008152600401611e2190614059565b60405180910390fd5b81600660006101000a81548160ff02191690836004811115611e4f57611e4e6139e8565b5b021790555060036004811115611e6857611e676139e8565b5b826004811115611e7b57611e7a6139e8565b5b148015611e955750600c60019054906101000a900460ff16155b15611f40576001600c60016101000a81548160ff021916908315150217905550600780549050600854611ec8919061413f565b600d6000600c60029054906101000a900473ffffffffffffffffffffffffffffffffffffffff1673ffffffffffffffffffffffffffffffffffffffff1673ffffffffffffffffffffffffffffffffffffffff1681526020019081526020016000206000828254611f3891906140d7565b925050819055505b600660009054906101000a900460ff169050919050565b6000600560008473ffffffffffffffffffffffffffffffffffffffff1673ffffffffffffffffffffffffffffffffffffffff16815260200190815260200160002060008373ffffffffffffffffffffffffffffffffffffffff1673ffffffffffffffffffffffffffffffffffffffff16815260200190815260200160002060009054906101000a900460ff16905092915050565b600180600481111561200057611fff6139e8565b5b600660009054906101000a900460ff166004811115612022576120216139e8565b5b14612062576040517f08c379a000000000000000000000000000000000000000000000000000000000815260040161205990614059565b60405180910390fd5b6000600a54116120a7576040517f08c379a000000000000000000000000000000000000000000000000000000000815260040161209e90614059565b60405180910390fd5b6008543410156120ec576040517f08c379a00000000000000000000000000000000000000000000000000000000081526004016120e390614059565b60405180910390fd5b60076040518060400160405280600854815260200160006002811115612115576121146139e8565b5b81525090806001815401808255809150506001900390600052602060002090600202016000909190919091506000820151816000015560208201518160010160006101000a81548160ff02191690836002811115612176576121756139e8565b5b021790555050506000600160078054905061219191906140d7565b9050600a60008154809291906121a6906143f7565b919050555060085434111561221f576000600854346121c591906140d7565b905080600d60003373ffffffffffffffffffffffffffffffffffffffff1673ffffffffffffffffffffffffffffffffffffffff1681526020019081526020016000206000828254612216919061410b565b92505081905550505b600854600d6000600c60029054906101000a900473ffffffffffffffffffffffffffffffffffffffff1673ffffffffffffffffffffffffffffffffffffffff1673ffffffffffffffffffffffffffffffffffffffff1681526020019081526020016000206000828254612292919061410b565b925050819055506122a33382612f64565b7f1b430c41ad1e9efc507aac150600ae9a3da936ed08479682cf954ffe044cd3d7306122cd6108d1565b33846040516122df94939291906141e1565b60405180910390a15050565b6002806004811115612300576122ff6139e8565b5b600660009054906101000a900460ff166004811115612322576123216139e8565b5b14612362576040517f08c379a000000000000000000000000000000000000000000000000000000000815260040161235990614059565b60405180910390fd5b813373ffffffffffffffffffffffffffffffffffffffff16612383826114ef565b73ffffffffffffffffffffffffffffffffffffffff16146123d9576040517f08c379a00000000000000000000000000000000000000000000000000000000081526004016123d090614059565b60405180910390fd5b600060028111156123ed576123ec6139e8565b5b6007848154811061240157612400614079565b5b906000526020600020906002020160010160009054906101000a900460ff166002811115612432576124316139e8565b5b14612472576040517f08c379a000000000000000000000000000000000000000000000000000000000815260040161246990614059565b60405180910390fd5b60016007848154811061248857612487614079565b5b906000526020600020906002020160010160006101000a81548160ff021916908360028111156124bb576124ba6139e8565b5b02179055506124c983612f82565b7fac92174eeb61f85360ac620b9781698309ca5a158de1f1174c15bec108483b4430846124f46108d1565b60405161250393929190614420565b60405180910390a1505050565b60007f01ffc9a7000000000000000000000000000000000000000000000000000000007bffffffffffffffffffffffffffffffffffffffffffffffffffffffff1916827bffffffffffffffffffffffffffffffffffffffffffffffffffffffff1916149050919050565b612583816130d0565b6125c2576040517f08c379a00000000000000000000000000000000000000000000000000000000081526004016125b9906142e5565b60405180910390fd5b50565b600033905090565b816004600083815260200190815260200160002060006101000a81548173ffffffffffffffffffffffffffffffffffffffff021916908373ffffffffffffffffffffffffffffffffffffffff160217905550808273ffffffffffffffffffffffffffffffffffffffff16612640836114ef565b73ffffffffffffffffffffffffffffffffffffffff167f8c5be1e5ebec7d5bd14f71427d1e84f3dd0314c0f7b2291e5b200ac8c7c3b92560405160405180910390a45050565b600080612692836114ef565b90508073ffffffffffffffffffffffffffffffffffffffff168473ffffffffffffffffffffffffffffffffffffffff1614806126d457506126d38185611f57565b5b8061271257508373ffffffffffffffffffffffffffffffffffffffff166126fa84610963565b73ffffffffffffffffffffffffffffffffffffffff16145b91505092915050565b8273ffffffffffffffffffffffffffffffffffffffff1661273b826114ef565b73ffffffffffffffffffffffffffffffffffffffff1614612791576040517f08c379a0000000000000000000000000000000000000000000000000000000008152600401612788906144d0565b60405180910390fd5b600073ffffffffffffffffffffffffffffffffffffffff168273ffffffffffffffffffffffffffffffffffffffff1603612800576040517f08c379a00000000000000000000000000000000000000000000000000000000081526004016127f790614562565b60405180910390fd5b61280d8383836001613111565b8273ffffffffffffffffffffffffffffffffffffffff1661282d826114ef565b73ffffffffffffffffffffffffffffffffffffffff1614612883576040517f08c379a000000000000000000000000000000000000000000000000000000000815260040161287a906144d0565b60405180910390fd5b6004600082815260200190815260200160002060006101000a81549073ffffffffffffffffffffffffffffffffffffffff02191690556001600360008573ffffffffffffffffffffffffffffffffffffffff1673ffffffffffffffffffffffffffffffffffffffff168152602001908152602001600020600082825403925050819055506001600360008473ffffffffffffffffffffffffffffffffffffffff1673ffffffffffffffffffffffffffffffffffffffff16815260200190815260200160002060008282540192505081905550816002600083815260200190815260200160002060006101000a81548173ffffffffffffffffffffffffffffffffffffffff021916908373ffffffffffffffffffffffffffffffffffffffff160217905550808273ffffffffffffffffffffffffffffffffffffffff168473ffffffffffffffffffffffffffffffffffffffff167fddf252ad1be2c89b69c2b068fc378daa952ba7f163c4a11628f55a4df523b3ef60405160405180910390a4612a0f8383836001613117565b505050565b60006002600083815260200190815260200160002060009054906101000a900473ffffffffffffffffffffffffffffffffffffffff169050919050565b8173ffffffffffffffffffffffffffffffffffffffff168373ffffffffffffffffffffffffffffffffffffffff1603612abf576040517f08c379a0000000000000000000000000000000000000000000000000000000008152600401612ab6906145ce565b60405180910390fd5b80600560008573ffffffffffffffffffffffffffffffffffffffff1673ffffffffffffffffffffffffffffffffffffffff16815260200190815260200160002060008473ffffffffffffffffffffffffffffffffffffffff1673ffffffffffffffffffffffffffffffffffffffff16815260200190815260200160002060006101000a81548160ff0219169083151502179055508173ffffffffffffffffffffffffffffffffffffffff168373ffffffffffffffffffffffffffffffffffffffff167f17307eab39ab6107e8899845ad3d59bd9653f200f220920489ca2b5937696c3183604051612bb09190613746565b60405180910390a3505050565b612bc884848461271b565b612bd48484848461311d565b612c13576040517f08c379a0000000000000000000000000000000000000000000000000000000008152600401612c0a90614660565b60405180910390fd5b50505050565b606060405180602001604052806000815250905090565b606060006001612c3f846132a4565b01905060008167ffffffffffffffff811115612c5e57612c5d613b7a565b5b6040519080825280601f01601f191660200182016040528015612c905781602001600182028036833780820191505090505b509050600082602001820190505b600115612cf3578080600190039150507f3031323334353637383961626364656600000000000000000000000000000000600a86061a8153600a8581612ce757612ce6614181565b5b04945060008503612c9e575b819350505050919050565b6000600480811115612d1357612d126139e8565b5b836004811115612d2657612d256139e8565b5b03612d345760009050612f5e565b60006004811115612d4857612d476139e8565b5b836004811115612d5b57612d5a6139e8565b5b03612dbe5760016004811115612d7457612d736139e8565b5b826004811115612d8757612d866139e8565b5b1480612db7575060036004811115612da257612da16139e8565b5b826004811115612db557612db46139e8565b5b145b9050612f5e565b60016004811115612dd257612dd16139e8565b5b836004811115612de557612de46139e8565b5b03612e765760026004811115612dfe57612dfd6139e8565b5b826004811115612e1157612e106139e8565b5b1480612e405750600480811115612e2b57612e2a6139e8565b5b826004811115612e3e57612e3d6139e8565b5b145b80612e6f575060036004811115612e5a57612e596139e8565b5b826004811115612e6d57612e6c6139e8565b5b145b9050612f5e565b60026004811115612e8a57612e896139e8565b5b836004811115612e9d57612e9c6139e8565b5b03612eff57600480811115612eb557612eb46139e8565b5b826004811115612ec857612ec76139e8565b5b1480612ef8575060036004811115612ee357612ee26139e8565b5b826004811115612ef657612ef56139e8565b5b145b9050612f5e565b60036004811115612f1357612f126139e8565b5b836004811115612f2657612f256139e8565b5b03612f5957600480811115612f3e57612f3d6139e8565b5b826004811115612f5157612f506139e8565b5b149050612f5e565b600090505b92915050565b612f7e8282604051806020016040528060008152506133f7565b5050565b6000612f8d826114ef565b9050612f9d816000846001613111565b612fa6826114ef565b90506004600083815260200190815260200160002060006101000a81549073ffffffffffffffffffffffffffffffffffffffff02191690556001600360008373ffffffffffffffffffffffffffffffffffffffff1673ffffffffffffffffffffffffffffffffffffffff168152602001908152602001600020600082825403925050819055506002600083815260200190815260200160002060006101000a81549073ffffffffffffffffffffffffffffffffffffffff021916905581600073ffffffffffffffffffffffffffffffffffffffff168273ffffffffffffffffffffffffffffffffffffffff167fddf252ad1be2c89b69c2b068fc378daa952ba7f163c4a11628f55a4df523b3ef60405160405180910390a46130cc816000846001613117565b5050565b60008073ffffffffffffffffffffffffffffffffffffffff166130f283612a14565b73ffffffffffffffffffffffffffffffffffffffff1614159050919050565b50505050565b50505050565b600061313e8473ffffffffffffffffffffffffffffffffffffffff16613452565b15613297578373ffffffffffffffffffffffffffffffffffffffff1663150b7a026131676125c5565b8786866040518563ffffffff1660e01b815260040161318994939291906146d5565b6020604051808303816000875af19250505080156131c557506040513d601f19601f820116820180604052508101906131c29190614736565b60015b613247573d80600081146131f5576040519150601f19603f3d011682016040523d82523d6000602084013e6131fa565b606091505b50600081510361323f576040517f08c379a000000000000000000000000000000000000000000000000000000000815260040161323690614660565b60405180910390fd5b805181602001fd5b63150b7a0260e01b7bffffffffffffffffffffffffffffffffffffffffffffffffffffffff1916817bffffffffffffffffffffffffffffffffffffffffffffffffffffffff19161491505061329c565b600190505b949350505050565b600080600090507a184f03e93ff9f4daa797ed6e38ed64bf6a1f0100000000000000008310613302577a184f03e93ff9f4daa797ed6e38ed64bf6a1f01000000000000000083816132f8576132f7614181565b5b0492506040810190505b6d04ee2d6d415b85acef8100000000831061333f576d04ee2d6d415b85acef8100000000838161333557613334614181565b5b0492506020810190505b662386f26fc10000831061336e57662386f26fc10000838161336457613363614181565b5b0492506010810190505b6305f5e1008310613397576305f5e100838161338d5761338c614181565b5b0492506008810190505b61271083106133bc5761271083816133b2576133b1614181565b5b0492506004810190505b606483106133df57606483816133d5576133d4614181565b5b0492506002810190505b600a83106133ee576001810190505b80915050919050565b6134018383613475565b61340e600084848461311d565b61344d576040517f08c379a000000000000000000000000000000000000000000000000000000000815260040161344490614660565b60405180910390fd5b505050565b6000808273ffffffffffffffffffffffffffffffffffffffff163b119050919050565b600073ffffffffffffffffffffffffffffffffffffffff168273ffffffffffffffffffffffffffffffffffffffff16036134e4576040517f08c379a00000000000000000000000000000000000000000000000000000000081526004016134db906147af565b60405180910390fd5b6134ed816130d0565b1561352d576040517f08c379a00000000000000000000000000000000000000000000000000000000081526004016135249061481b565b60405180910390fd5b61353b600083836001613111565b613544816130d0565b15613584576040517f08c379a000000000000000000000000000000000000000000000000000000000815260040161357b9061481b565b60405180910390fd5b6001600360008473ffffffffffffffffffffffffffffffffffffffff1673ffffffffffffffffffffffffffffffffffffffff16815260200190815260200160002060008282540192505081905550816002600083815260200190815260200160002060006101000a81548173ffffffffffffffffffffffffffffffffffffffff021916908373ffffffffffffffffffffffffffffffffffffffff160217905550808273ffffffffffffffffffffffffffffffffffffffff16600073ffffffffffffffffffffffffffffffffffffffff167fddf252ad1be2c89b69c2b068fc378daa952ba7f163c4a11628f55a4df523b3ef60405160405180910390a461368e600083836001613117565b5050565b6000604051905090565b600080fd5b600080fd5b60007fffffffff0000000000000000000000000000000000000000000000000000000082169050919050565b6136db816136a6565b81146136e657600080fd5b50565b6000813590506136f8816136d2565b92915050565b6000602082840312156137145761371361369c565b5b6000613722848285016136e9565b91505092915050565b60008115159050919050565b6137408161372b565b82525050565b600060208201905061375b6000830184613737565b92915050565b600081519050919050565b600082825260208201905092915050565b60005b8381101561379b578082015181840152602081019050613780565b60008484015250505050565b6000601f19601f8301169050919050565b60006137c382613761565b6137cd818561376c565b93506137dd81856020860161377d565b6137e6816137a7565b840191505092915050565b6000602082019050818103600083015261380b81846137b8565b905092915050565b6000819050919050565b61382681613813565b811461383157600080fd5b50565b6000813590506138438161381d565b92915050565b60006020828403121561385f5761385e61369c565b5b600061386d84828501613834565b91505092915050565b600073ffffffffffffffffffffffffffffffffffffffff82169050919050565b60006138a182613876565b9050919050565b6138b181613896565b82525050565b60006020820190506138cc60008301846138a8565b92915050565b6138db81613896565b81146138e657600080fd5b50565b6000813590506138f8816138d2565b92915050565b600080604083850312156139155761391461369c565b5b6000613923858286016138e9565b925050602061393485828601613834565b9150509250929050565b6000806000606084860312156139575761395661369c565b5b6000613965868287016138e9565b9350506020613976868287016138e9565b925050604061398786828701613834565b9150509250925092565b6000602082840312156139a7576139a661369c565b5b60006139b5848285016138e9565b91505092915050565b6139c781613813565b82525050565b60006020820190506139e260008301846139be565b92915050565b7f4e487b7100000000000000000000000000000000000000000000000000000000600052602160045260246000fd5b60038110613a2857613a276139e8565b5b50565b6000819050613a3982613a17565b919050565b6000613a4982613a2b565b9050919050565b613a5981613a3e565b82525050565b6000604082019050613a7460008301856139be565b613a816020830184613a50565b9392505050565b6000613a9382613876565b9050919050565b613aa381613a88565b82525050565b6000602082019050613abe6000830184613a9a565b92915050565b613acd8161372b565b8114613ad857600080fd5b50565b600081359050613aea81613ac4565b92915050565b60008060408385031215613b0757613b0661369c565b5b6000613b15858286016138e9565b9250506020613b2685828601613adb565b9150509250929050565b60008060408385031215613b4757613b4661369c565b5b6000613b5585828601613834565b9250506020613b6685828601613834565b9150509250929050565b600080fd5b600080fd5b7f4e487b7100000000000000000000000000000000000000000000000000000000600052604160045260246000fd5b613bb2826137a7565b810181811067ffffffffffffffff82111715613bd157613bd0613b7a565b5b80604052505050565b6000613be4613692565b9050613bf08282613ba9565b919050565b600067ffffffffffffffff821115613c1057613c0f613b7a565b5b613c19826137a7565b9050602081019050919050565b82818337600083830152505050565b6000613c48613c4384613bf5565b613bda565b905082815260208101848484011115613c6457613c63613b75565b5b613c6f848285613c26565b509392505050565b600082601f830112613c8c57613c8b613b70565b5b8135613c9c848260208601613c35565b91505092915050565b60008060008060808587031215613cbf57613cbe61369c565b5b6000613ccd878288016138e9565b9450506020613cde878288016138e9565b9350506040613cef87828801613834565b925050606085013567ffffffffffffffff811115613d1057613d0f6136a1565b5b613d1c87828801613c77565b91505092959194509250565b60058110613d3957613d386139e8565b5b50565b6000819050613d4a82613d28565b919050565b6000613d5a82613d3c565b9050919050565b613d6a81613d4f565b82525050565b6000602082019050613d856000830184613d61565b92915050565b60058110613d9857600080fd5b50565b600081359050613daa81613d8b565b92915050565b600060208284031215613dc657613dc561369c565b5b6000613dd484828501613d9b565b91505092915050565b60008060408385031215613df457613df361369c565b5b6000613e02858286016138e9565b9250506020613e13858286016138e9565b9150509250929050565b7f4e487b7100000000000000000000000000000000000000000000000000000000600052602260045260246000fd5b60006002820490506001821680613e6457607f821691505b602082108103613e7757613e76613e1d565b5b50919050565b7f4552433732313a20617070726f76616c20746f2063757272656e74206f776e6560008201527f7200000000000000000000000000000000000000000000000000000000000000602082015250565b6000613ed960218361376c565b9150613ee482613e7d565b604082019050919050565b60006020820190508181036000830152613f0881613ecc565b9050919050565b7f4552433732313a20617070726f76652063616c6c6572206973206e6f7420746f60008201527f6b656e206f776e6572206f7220617070726f76656420666f7220616c6c000000602082015250565b6000613f6b603d8361376c565b9150613f7682613f0f565b604082019050919050565b60006020820190508181036000830152613f9a81613f5e565b9050919050565b7f4552433732313a2063616c6c6572206973206e6f7420746f6b656e206f776e6560008201527f72206f7220617070726f76656400000000000000000000000000000000000000602082015250565b6000613ffd602d8361376c565b915061400882613fa1565b604082019050919050565b6000602082019050818103600083015261402c81613ff0565b9050919050565b50565b600061404360008361376c565b915061404e82614033565b600082019050919050565b6000602082019050818103600083015261407281614036565b9050919050565b7f4e487b7100000000000000000000000000000000000000000000000000000000600052603260045260246000fd5b7f4e487b7100000000000000000000000000000000000000000000000000000000600052601160045260246000fd5b60006140e282613813565b91506140ed83613813565b9250828203905081811115614105576141046140a8565b5b92915050565b600061411682613813565b915061412183613813565b9250828201905080821115614139576141386140a8565b5b92915050565b600061414a82613813565b915061415583613813565b925082820261416381613813565b9150828204841483151761417a576141796140a8565b5b5092915050565b7f4e487b7100000000000000000000000000000000000000000000000000000000600052601260045260246000fd5b60006141bb82613813565b91506141c683613813565b9250826141d6576141d5614181565b5b828204905092915050565b60006080820190506141f660008301876138a8565b818103602083015261420881866137b8565b905061421760408301856138a8565b61422460608301846139be565b95945050505050565b600081905092915050565b600061424560008361422d565b915061425082614033565b600082019050919050565b600061426682614238565b9150819050919050565b600060408201905061428560008301856138a8565b61429260208301846139be565b9392505050565b7f4552433732313a20696e76616c696420746f6b656e2049440000000000000000600082015250565b60006142cf60188361376c565b91506142da82614299565b602082019050919050565b600060208201905081810360008301526142fe816142c2565b9050919050565b7f4552433732313a2061646472657373207a65726f206973206e6f74206120766160008201527f6c6964206f776e65720000000000000000000000000000000000000000000000602082015250565b600061436160298361376c565b915061436c82614305565b604082019050919050565b6000602082019050818103600083015261439081614354565b9050919050565b600081905092915050565b60006143ad82613761565b6143b78185614397565b93506143c781856020860161377d565b80840191505092915050565b60006143df82856143a2565b91506143eb82846143a2565b91508190509392505050565b600061440282613813565b915060008203614415576144146140a8565b5b600182039050919050565b600060608201905061443560008301866138a8565b61444260208301856139be565b818103604083015261445481846137b8565b9050949350505050565b7f4552433732313a207472616e736665722066726f6d20696e636f72726563742060008201527f6f776e6572000000000000000000000000000000000000000000000000000000602082015250565b60006144ba60258361376c565b91506144c58261445e565b604082019050919050565b600060208201905081810360008301526144e9816144ad565b9050919050565b7f4552433732313a207472616e7366657220746f20746865207a65726f2061646460008201527f7265737300000000000000000000000000000000000000000000000000000000602082015250565b600061454c60248361376c565b9150614557826144f0565b604082019050919050565b6000602082019050818103600083015261457b8161453f565b9050919050565b7f4552433732313a20617070726f766520746f2063616c6c657200000000000000600082015250565b60006145b860198361376c565b91506145c382614582565b602082019050919050565b600060208201905081810360008301526145e7816145ab565b9050919050565b7f4552433732313a207472616e7366657220746f206e6f6e20455243373231526560008201527f63656976657220696d706c656d656e7465720000000000000000000000000000602082015250565b600061464a60328361376c565b9150614655826145ee565b604082019050919050565b600060208201905081810360008301526146798161463d565b9050919050565b600081519050919050565b600082825260208201905092915050565b60006146a782614680565b6146b1818561468b565b93506146c181856020860161377d565b6146ca816137a7565b840191505092915050565b60006080820190506146ea60008301876138a8565b6146f760208301866138a8565b61470460408301856139be565b8181036060830152614716818461469c565b905095945050505050565b600081519050614730816136d2565b92915050565b60006020828403121561474c5761474b61369c565b5b600061475a84828501614721565b91505092915050565b7f4552433732313a206d696e7420746f20746865207a65726f2061646472657373600082015250565b600061479960208361376c565b91506147a482614763565b602082019050919050565b600060208201905081810360008301526147c88161478c565b9050919050565b7f4552433732313a20746f6b656e20616c7265616479206d696e74656400000000600082015250565b6000614805601c8361376c565b9150614810826147cf565b602082019050919050565b60006020820190508181036000830152614834816147f8565b905091905056fea26469706673582212200e81b820ac055386300db4a7196528b16e3c9378e92b3d40170018cda50b9db264736f6c63430008110033",
  "linkReferences": {},
  "deployedLinkReferences": {}
}